:020000040800F2
:10000000880600202902000865020008670200082F
:10001000690200086B0200086D0200080000000081
:100020000000000000000000000000006F02000857
:100030007102000800000000730200087502000849
:1000400077020008770200087702000877020008AC
:10005000770200087702000877020008770200089C
:10006000770200087702000877020008770200088C
:10007000770200087702000877020008770200087C
:10008000770200087702000877020008770200086C
:10009000770200087702000877020008770200085C
:1000A000770200087702000877020008770200084C
:1000B000770200087702000877020008770200083C
:1000C000770200087702000877020008770200082C
:1000D000770200087702000877020008770200081C
:1000E000770200087702000877020008770200080C
:1000F00077020008770200087702000877020008FC
:1001000077020008770200087702000877020008EB
:1001100077020008770200087702000877020008DB
:1001200077020008770200087702000877020008CB
:1001300077020008770200087702000877020008BB
:1001400077020008770200087702000877020008AB
:10015000770200087702000877020008770200089B
:10016000770200087702000877020008770200088B
:1001700077020008770200087702000800000000FC
:10018000770200087702000800F002F800F03CF85F
:100190000AA090E8000C82448344AAF10107DA45E2
:1001A00001D100F031F8AFF2090EBAE80F0013F0F8
:1001B000010F18BFFB1A43F00103184798250000F0
:1001C000B8250000103A24BF78C878C1FAD8520781
:1001D00024BF30C830C144BF04680C6070470000C1
:1001E0000023002400250026103A28BF78C1FBD840
:1001F000520728BF30C148BF0B6070471FB502F0DF
:10020000B6F91FBD10B510BD00F0AEF81146FFF7EE
:10021000F5FF01F061FA00F0CCF803B4FFF7F2FF4C
:1002200003BC00F0CFF8000016481749174B99425D
:100230003CBF50F8042B41F8042BF8D314494FF07D
:1002400000028B4238BF43F8042BFAD3DFF8440096
:10025000016841F470010160BFF34F8FBFF36F8FEE
:100260000D480047FEE7FEE7FEE7FEE7FEE7FEE794
:10027000FEE7FEE7FEE7FEE708480949094A0A4BA0
:1002800070470000742700080000002008000020CC
:100290008806002088ED00E0890100088800002021
:1002A0008806002088020020880200200FB41CB5B8
:1002B000084B06AA7B4469460090059800F01FF899
:1002C00004460020694600F02DF820461CBC5DF86D
:1002D00014FB00006D00000070477047704710B5B8
:1002E00000F026F8006810BD10B5044600F020F8B4
:1002F000046010BD01694A1C02610878704700B5AE
:100300008FB0CDE901310021059105497944CDE94E
:1003100003101146684600F00FF80FB000BD000052
:10032000E5FFFFFF0A6802F8010B0A607047000052
:1003300000487047280000202DE9F04106460024BF
:10034000D6E90170F5688046304603E04146B8477B
:10035000641C3046A8470028F8D12046BDE8F0814B
:1003600000487047280000207546FFF7F9FFAE46A9
:1003700005006946534620F00700854618B020B5B1
:10038000FFF77AFFBDE820404FF000064FF000076E
:100390004FF000084FF0000B21F00701AC46ACE82D
:1003A000C009ACE8C009ACE8C009ACE8C0098D469A
:1003B000704710B50446AFF300802046BDE81040FA
:1003C000FFF72BBF01491820ABBEFEE72600020055
:1003D000704700000E48C06C40F011000C49C86422
:1003E0004FF0AA304FF09041C8600A49C8604FF002
:1003F0009040006840F63F4188434FF090410860CC
:100400000448006804490840024908607047000039
:100410000010024000100048FFFFCFC00F48C06C22
:1004200040F002000D49C8640D48006820F0C0008B
:100430000B4908600846006840F0800008600848E2
:100440002030006820F470400549203108600846DB
:10045000006840F4805008607047000000100240BF
:10046000000400485E49096821F007015C4A1160F8
:100470001146096841F0020111605A49096841F4C6
:100480008071584A116000BF5649096801F48061C3
:100490000029F9D010205349496821F0F851514AF8
:1004A00051601146496841EA00615160114609688E
:1004B00021F08071116000BF4A49096801F00071A4
:1004C000B1F1007FF8D04749C96821F00301454ADE
:1004D000D1601146C96841F00201D1601146C96876
:1004E00021F4FE4141F4A051D1601146C96821F0C8
:1004F000700141F01001D1601146C96821F0C0615E
:10050000D1601146C96841F08071D1601146096817
:1005100041F08071116000BF3249096801F000713B
:100520000029F9D02F49896821F003012D4A9160F3
:100530001146896841F00301916000BF294989682B
:1005400001F00C010C29F9D12649896821F0F0014C
:10055000244A91601146896821F4E0619160114656
:10056000896821F4605191601146096821F0806129
:10057000116000BF1B49096801F08061B1F1806F13
:10058000F8D01849096921F4FE41164A1161114653
:10059000096941F4C05111611146096941F4003102
:1005A00011611146096941F48031116111460968F0
:1005B00041F08061116000BF0A49096801F0806163
:1005C0000029F9D007498831096821F44001054A1A
:1005D000C2F888101146096E41F400111166704787
:1005E00000200240001002401A48C06C40F0080091
:1005F0001849C8641848006820F47050164908600B
:100600000846006840F42050086013482030006815
:1006100040F0EE601049203108600F480830006853
:1006200040F470500C4908310860081D006820F43F
:100630007050091D08600846006840F4A05008602A
:100640000548001D006820F060000349091D08608E
:100650007047000000100240000C004800B50D4833
:10066000806D40F400300B4988650A488830006886
:1006700020F00C00C1F888000846D0F8880040F04F
:100680000400C1F88800FFF7AFFF034800F010F83E
:1006900000BD0000001002400044004064224243BC
:1006A0000723B2FBF3F100BF4A1E111EFCD17047B5
:1006B000016821F001010160016821F01021016051
:1006C000016821F400410160416821F4405141601A
:1006D00042F28D01C160016841F00C0101601E49C8
:1006E00088421BD1016841F020010160016821F0BE
:1006F00040010160016821F010010160016821F0F2
:1007000080010160016821F480710160016821F0BD
:1007100040010160016821F0010101600F49884238
:1007200009D1016A41F0400101620D49096841F0B7
:10073000C0010B4A1160016841F00101016000BF76
:10074000C16901F400110029FAD000BFC16901F4A8
:1007500080010029FAD07047004C0040004400405E
:1007600008380140F0B504460E46174600250CE057
:1007700000BFE06900F080000028FAD0705D20859D
:100780004FF49670FFF78AFF6D1CBD42F0D300BF97
:10079000E06900F040000028FAD0E06920F0400055
:1007A000E061F0BD03B401984100009850EAC12017
:1007B00018BF04204A0D18BF40F0010040F2FF723C
:1007C000B2EB515F08BF40F00200012808BF0520CE
:1007D00002B07047000000002DE9F04D2DED040B34
:1007E0002DED0E8B96B0DDE92550279CDDF890A00D
:1007F00025F0004624F00048BAF1000F14BF012193
:10080000002101EB4502FC4953184A1093422AD3B8
:10081000002814BF0123002303EB44030B44F749D2
:100820008B4220D358EA00019FEDF59B76D0DFF88C
:10083000D8B35D4503D1BAF1000F05D188E0BAF114
:10084000000F08BF002100D0012101EB450111F587
:10085000001F08D8002814BF0121002101EB44012A
:1008600011F5001F0BD99DED261B9DED240B16B035
:1008700000F0DABD04B0BDE8F04D00F081BE002705
:10088000002DBCBFE149884521DAE1498845A8BF70
:1008900002271CDAC3451ADCDE4901EB2851142972
:1008A00008DDC1F1340220FA02F101FA02F28242BB
:1008B0000DD108E058B9C1F1140228FA02F101FA89
:1008C00002F2424503D101F00101C1F1020756EAEB
:1008D0000A0124D1002C22DA002D18BF022F01D0EA
:1008E000012F0AD00220FFF7FFFC16B000F0A2BDD6
:1008F00004B0BDE8F04D00F02BBE0220FFF7F4FC81
:1009000000F026FE51EC100B01F024F841EC100B26
:1009100016B000F095BD04B0BDE8F08D18E09FED75
:10092000BEAB9FEDBF8B002871D1B848804522D166
:1009300005F1804010F5801008BFBAF1000F07D014
:10094000B3450ADC002CA8BF9DED260BE0DA0DE0D4
:10095000B0EE490AF0EE690ADAE7002C06DA9DEDFE
:10096000260B51EC100B00F0F5FF6FE0AE48784419
:1009700090ED000BCCE7D8454DD1002C48DA2EB1D4
:1009800086423AD1BAF1000F42D126E0BAF1000F07
:1009900013D00220FFF7A8FC00F00EFE8DED020B35
:1009A0009DED240B8DED000B10EE900A039961F381
:1009B0001E0003909DED020BAAE78DED02AB9DEDAD
:1009C000240B1AEE901A10EE900A8DED000B61F3D5
:1009D0001E0003909DED020B9AE78DED028B9DEDBD
:1009E000240B18EE901A10EE900A8DED000B61F3B7
:1009F0001E0003909DED020B8AE709DA9DED240BA2
:100A000051EC190B53EC102B01F09EF81EE020E086
:100A10009DED240B7CE786421BDAB4F1804F0DD0AC
:100A2000A4F10050B0F1FF5013D1002D11DB9DED6A
:100A3000240B51EC100B00F0C3FE07E09DED240BDE
:100A400053EC102B51EC100B00F0C2BC41EC100B1E
:100A50005EE79DED240B51EC100B00F023FEBAF184
:100A6000000FCDE90E0142D19FED710B46B3A6F107
:100A7000E040B0F17F600CD05E4538D1002D00DA47
:100A8000A7B3022F0CBF01204FF0FF3001F0B4F9E3
:100A9000DCE7002D01DD002C0DDA002D01DD002C3E
:100AA0001FDB002D16DA002C14DB012F08BF9FED91
:100AB000620B3FF42DAFB0EE4A0AF0EE6A0A27E768
:100AC000022F18BF002D0CD0012F0AD1002DFFF6E8
:100AD0001FAF06E0002DB8BF002C08DA012F3FF44D
:100AE00017AFB0EE480AF0EE680A11E71BE00120EC
:100AF00000EBE57050EA070115D0791EB0EE498A87
:100B0000F0EE698A084308BF9FED4D8B4E480025E3
:100B1000804570DD4D494E48884514DDB0420DDBFF
:100B2000002C19DB2FE00120FFF7DEFB16B000F0F0
:100B30008DBC04B0BDE8F04D00F02EBDB34502DC25
:100B4000002C09DC1FE0864202DA002C1BDA03E0ED
:100B50005E452BDD002C16DD0220FFF7C5FB00F003
:100B60002BFD8DED020B53EC1A2B51EC180B01F001
:100B700097F9CDE900010399019861F31E000390F4
:100B80009DED020BC4E60220FFF7AEFB00F024FD52
:100B900010EE901A18EE900A8DED020B8DED008B81
:100BA00061F31E0003909DED020BB1E69DED0E0B6F
:100BB00053EC192B51EC100B01F07EFB9FED260B33
:100BC000CDE9080153EC102B9DED080B51EC100BF7
:100BD00001F066F99FED221B53EC112B01F094FA02
:100BE0009DED081B53EC112B01F05AF99FED1E1BD4
:100BF00053EC112B3CE08CE0FFFF1F00FFFF0F00C8
:100C0000000000000000F03F0000F03F0000F07F17
:100C10000000404301FCFFFF000000000000F07FE7
:100C200000000000000000008E1D00000000000019
:100C30000000000000000080000000000000F0FF45
:100C4000000000000000F0BF0000E0410000F043A1
:100C5000FFFFEF3F00000000000000000000D03F59
:100C6000555555555555D53F000000000000E03F53
:100C700001F04AFA9DED080B41EC1A0B53EC102BD6
:100C800051EC100B01F00CF953EC1A2B01F008F9A0
:100C900041EC1A0B9FEDFE0B53EC102B9DED080B56
:100CA00051EC100B01F0FCF841EC1B0B9FEDFA0B23
:100CB00051EC1A0B53EC102B01F0F2F841EC1A0B2B
:100CC0009FEDF70B53EC102B9DED080B51EC100B27
:100CD00001F0E6F853EC1A2B01F0EEFA41EC1A0B96
:100CE00051EC1B0B53EC1A2B00F072FE0690CDE971
:100CF00006519DED060B53EC1B2B51EC100B01F034
:100D0000DBFA53EC1A2B01F0FFF941EC100B00F069
:100D1000A1B90020B6F5801F0EDA9FEDE30B53EC6E
:100D2000102B9DED0E0B51EC100B01F0B9F8CDE935
:100D30000E016FF034000E4600EB2650A0F2FF3794
:100D4000C6F31300DA4940F07F6646F04056884209
:100D5000D8BF002408DDD7498142C8BF012403DC85
:100D60000024A6F580167F1CD348784400EBC4000D
:100D70000F9690ED00CB9DED0E0B53EC1C2B51EC20
:100D8000100B01F099FA9DED0E0B41EC1B0B53EC8F
:100D90001C2B51EC100B00F01BFE41EC100B51EC26
:100DA000190B53EC102B00F0CFFE41EC1D0B51EC56
:100DB0001B0B53EC1D2B01F073F841EC1A0BBF48D1
:100DC0008DED10AB7844109590ED000B4FF0005076
:100DD00040EA660000EB84408DED080B00F5002032
:100DE00009909DED080B53EC1C2B51EC100B01F0FE
:100DF00063FA9DED0E1B53EC112B01F085F941ECCC
:100E0000100B53EC102B9DED100B51EC100B01F05F
:100E100047F89DED080B41EC1C0B53EC102B9DED9E
:100E2000100B51EC100B01F03BF853EC1B2B01F0B5
:100E30006BF953EC1C2B01F03FFA53EC1D2B01F026
:100E40002FF841EC1C0B53EC1A2B51EC1A0B01F050
:100E500027F841EC1B0B9A480621B0EE4B0AF0EE46
:100E60006B0A784400F0F8FAB0EE401AF0EE601A1F
:100E7000B0EE41DAF0EE61DA53EC1B2B51EC1B0BB8
:100E800001F00EF853EC1D2B01F00AF89DED100B4C
:100E900041EC1B0B53EC1A2B51EC100B00F098FD9E
:100EA00053EC1C2B00F0FCFF53EC1B2B00F090FDCF
:100EB0009DED100B41EC1B0B53EC102B51EC100B68
:100EC00000F0EEFF41EC1D0B9FED7FEB53EC1E2B72
:100ED00000F07EFD53EC1B2B00F07AFD0890CDE96D
:100EE00008519DED080B53EC1E2B51EC100B01F03B
:100EF000E3F953EC1D2B01F0DFF953EC1B2B01F050
:100F000003F99DED080B41EC1D0B53EC102B9DEDEF
:100F1000100B51EC100B00F0C3FF41EC1B0B53EC1A
:100F20001A2B51EC1D0B00F0BBFF9DED080B41ECA3
:100F30001A0B53EC102B51EC1C0B00F0B1FF53ECCF
:100F40001A2B00F045FD41EC1A0B51EC1B0B53EC36
:100F50001A2B00F03DFD0C90CDE90C519DED0C0BD2
:100F600053EC1B2B51EC100B01F0A6F953EC1A2B90
:100F700001F0CAF841EC1B0B9FED550B53EC102B05
:100F80009DED0C0B51EC100B00F08AFF41EC1A0B9D
:100F90009FED510B51EC1B0B53EC102B00F080FF1D
:100FA00041EC1B0B9FED4E0B53EC102B9DED0C0BEE
:100FB00051EC100B00F074FF53EC1B2B00F008FDFC
:100FC00041EC100B4848784400EBC40090ED001B46
:100FD00051EC100B53EC112B00F0FAFC41EC1B0B05
:100FE000384600F009FFCDE9080153EC1B2B51EC0A
:100FF0001A0B00F0EDFC41EC100B3C48784400EB80
:10100000C40090ED00CB51EC100B53EC1C2B00F006
:10101000DFFC9DED081B53EC112B00F0D9FC069072
:10102000CDE906519DED080B53EC102B9DED060B01
:1010300051EC100B01F040F953EC1C2B01F03CF982
:1010400053EC1A2B01F038F953EC1B2B01F05CF830
:1010500041EC100B9DED261B53EC102B8DED001B6E
:1010600000959DED260B51EC100B00F019FF9DED46
:10107000000B41EC1A0B53EC102B9DED260B51ECA1
:10108000100B01F019F99DED061B53EC112B2FE00D
:10109000000000604715F73FFE822B654715F73FBC
:1010A00044DF5DF80BAE543E0000000000004043FA
:1010B0008E9803007AB60B000A1900003819000058
:1010C000421800000000000000000000000008407E
:1010D000000000E009C7EE3FFD033ADC09C7EE3F20
:1010E000F5015B14E02F3EBECE160000881600000E
:1010F00000F0D6FE53EC1A2B00F06AFC9DED060BB7
:1011000041EC1A0B53EC102B9DED000B51EC100B26
:1011100000F0C6FECDE90C019DED0C0B51EC1A0B55
:1011200053EC102B00F054FCCDE902010C46AA4907
:101130008C422FDB611A084318D19DED0C0B53EC48
:10114000102B9DED020B51EC100B01F0B5F841ECAA
:101150001B0B9FEDA30B51EC1A0B53EC102B00F063
:1011600037FC53EC1B2B00F099FF2DD20220FFF728
:10117000BBF800F021FA10EE901A18EE900A8DEDEF
:10118000020B8DED008B61F31E0003909DED020BB1
:10119000FFF7BEBB944A24F00041914214D3934917
:1011A000214408437FF4EFAC9DED0C0B53EC102B66
:1011B0009DED020B51EC100B01F07EF853EC1A2B55
:1011C00000F06CFF7FF6DFAC24F000408849894ACC
:1011D000002601EB205182422BDA481C4FF480118B
:1011E00021FA00F02044844AC0F30A517A44A1F263
:1011F000FF3192ED000B814A8DED080BCA4020EAC9
:101200000202C0F3130040F48010C1F1140120FA6F
:1012100001F60992002CB8BF76429DED080B53EC05
:10122000102B9DED0C0B51EC100B01F045F8CDE9A6
:101230000C019DED0C0B51EC1A0B53EC102B00F034
:10124000C7FB9FED6F0B0890CDE9085153EC102BB5
:101250009DED080B51EC100B00F022FE41EC1B0B36
:101260009FED690B53EC102B9DED080B51EC100B0F
:1012700000F016FE9DED0C0B41EC1C0B53EC102BFB
:101280009DED080B51EC100B01F016F853EC1A2BE6
:1012900000F03AFF9FED5E1B53EC112B00F000FEB7
:1012A00053EC1C2B00F094FB41EC1A0B51EC1B0B84
:1012B00053EC1A2B00F08CFBCDE902019DED020BE3
:1012C00053EC1B2B51EC100B00F0F6FF53EC1A2BD8
:1012D00000F01AFF9DED020B41EC1A0B53EC102BA2
:1012E00051EC100B00F0DCFDCDE908014A489DED02
:1012F000080B0521784400F0AFF89DED081B51EC78
:10130000100B53EC112B00F0CBFD9DED021B53ECA9
:10131000112B00F0F9FECDE906019DED020B53EC17
:101320001A2B51EC100B00F0BBFD53EC1A2B00F004
:101330004FFB9FED3B0B41EC1A0B53EC102B9DED3B
:10134000060B51EC100B00F0B7FF9DED060B41ECC6
:101350001B0B53EC102B9DED020B51EC100B00F00E
:101360009FFD53EC1B2B00F0EFFB53EC1A2B00F00E
:10137000A3FF9DED021B53EC112B00F09DFF53ECDE
:10138000192B00F0C1FECDE9020101EB0650011559
:101390000029C8BF039015DC9DED020B324651ECCD
:1013A000100B01F020F9FFF7FDF9042808BF00F049
:1013B00013F932469DED020B51EC100B01F013F9BD
:1013C000CDE902019DED020B51EC180B53EC102BF3
:1013D00000F066FDFFF73ABB0000904000000000FF
:1013E000FE822B654715973C00CC904000346F3F40
:1013F00001FCFFFF0000E03F10150000FFFF0F00A1
:1014000000000000432EE63F396CA80C615C20BE52
:10141000EF39FAFE422EE63FE01300000000000024
:101420000000000000000040BDEC088BBDEC06CBC6
:10143000FFF720BABDEC088BBDEC06CBFFF758BA1E
:10144000BDEC088BBDEC06CBFFF765BABDEC088B95
:10145000BDEC06CBFFF76DBB70B504462DED028BDE
:101460004D1E00EBC500B0EE408AF0EE608A90EDB4
:10147000000B35F0060017D053EC182B51EC100B75
:1014800000F00EFD41EC100B6D1E04EBC50090ED5D
:10149000001B51EC100B53EC112B00F099FA41ECAE
:1014A000100B35F00600E7D1022D36D0042D1CD0EC
:1014B000062D1CBFBDEC028B70BD53EC182B51ECFC
:1014C000100B00F0EDFC94ED0A1B53EC112B00F017
:1014D0007FFA53EC182B00F0E3FC94ED081B53EC5F
:1014E000112B00F075FA41EC100B53EC182B51EC5A
:1014F000100B00F0D5FC94ED061B53EC112B00F003
:1015000067FA53EC182B00F0CBFC94ED040B53EC72
:10151000102B00F05DFA41EC100B53EC182B51EC42
:10152000100B00F0BDFC94ED021B53EC112B00F0EE
:101530004FFA53EC182B00F0B3FC94ED001B53EC66
:10154000112B00F045FABDEC028B41EC100B70BD85
:101550009FED070B10B553EC102B9FED070B51ECD3
:10156000100B00F0F1FA41EC100B10BD0000000070
:101570000000000000000000000000000000F03F3C
:1015800010B553EC112B51EC100B00F021FA41EC8B
:10159000100B10BD000000009FED050B10B553ECC3
:1015A000102B51EC100B00F0CFFA41EC100B10BDDA
:1015B00000000000000000009FED050B10B553EC8B
:1015C000102B51EC100B00F06BFC41EC100B10BD1C
:1015D00000000000000000709FED050B10B553ECFB
:1015E000102B51EC100B00F05BFC41EC100B10BD0C
:1015F000000000000000001070B52DED0E8B0546B8
:101600009FED220AB0EE408A002400BF2FE0201F89
:1016100000F0F2FB41EC1E0BB0EE4E1AF0EE6E1A2B
:101620009FED1B0BFFF7D8F8B0EE40CAF0EE60CA92
:10163000C4F1070135F9110000F0DEFB41EC1D0B90
:1016400053EC1C2B00F02CFC41EC1A0B18EE100A8A
:1016500000F01CFF41EC1B0B53EC1A2B00F0B8F907
:1016600041EC190B00F082F908EE100A641C072CFB
:10167000CDDB288828B1BFEE000A28EE000AB0EEC4
:10168000408AB0EE480A00F007B870BD00000000C4
:101690000000000000000040BDEC088BBDEC06CB54
:1016A000FFF7F3BF82B0CDE9000121F000400190C7
:1016B0009DED000B02B051EC100B704710B5FEF71A
:1016C000D1FEFEF7CBFFFEF785FEFEF7A7FE00F08A
:1016D000AFF800F0F7F810BD2DED028B84B0FFF7E6
:1016E000EDFF19491948FEF7E1FD19490860084660
:1016F000164902681748FFF735F800BF9FED160A34
:10170000B0EE408A00BF002000900190029003904C
:1017100018E0684600F024F86846FFF76DFFB0EE69
:10172000408AB2EE040A28EE000ADFED0C0A20EE31
:10173000200ABDEEC00A10EE100A41F2040108446E
:1017400009078863E5E70000082700080800002073
:10175000000000200044004000000000000068423B
:101760004FF09041096901F0010101804FF0904173
:101770000969C1F3401141804FF090410969C1F3FB
:10178000400181804FF090410969C1F38001C1801F
:101790000A490969C1F38021018108490969C1F336
:1017A0000031418105490969C1F340318181034913
:1017B0000969C1F38031C181704700000010004801
:1017C00000B52DED048B83B041EC190B00F0A8FCA3
:1017D00041EC180B18EE100A18EE901A8DED008BE4
:1017E000002818BF0120084320F00040C0F17F60AE
:1017F00000F1E040C00F14D019EE101A19EE900A53
:101800008DED009B002918BF0121084320F0004006
:10181000C0F17F6000F1E040C00F04BF0120FEF77F
:1018200063FD51EC180B03B0BDEC048B00BD000050
:101830002348806D40F00100214988658804806953
:1018400020F4E040890488610846806940F4C04083
:1018500088610846806940F4006088610846C06974
:1018600020F07000C8610846C06940F06000C8619F
:101870000846C06940F00800C8610846006840F0AA
:10188000800008600846006A40F0100008620846C0
:10189000006A40F480700862192088624FF20410D8
:1018A000C86241F2040088630007406940F001000B
:1018B00048610846006840F0010008607047000079
:1018C000001002402148806D40F008001F498865E3
:1018D0001F48006820F4E0401D4908600846006881
:1018E00040F4C04008600846006840F400600860AA
:1018F00017481C38006840F0800015491C39086002
:101900001348001D006840F480501149091D08600B
:1019100041F63F700E490C3108604FF47A70091D92
:10192000086040100A4924310860094808380068F6
:1019300040F0010006490839086005481C38006875
:1019400040F0010002491C39086070470010024055
:101950001C0C004081F00041704780F0004070474F
:1019600021F00041704720F00040704721F0004214
:10197000A2F16052B2F5801F01F0004328BFD2F1FE
:101980007F6C0BD95FEA001C43EAC20242EB507045
:1019900018BF704728BF20F001007047B2F5801FC4
:1019A000BCBF184670474FEA410C1CF5001F02D21D
:1019B000084600F0E1BD70B500F01CFB0000008996
:1019C000FFF7F6BF4FF00040A0F580007047000021
:1019D00010B591EA030F48BF83F0004300F174840F
:1019E000841A71EB030C05D2121943EB0C03001B94
:1019F00061EB0C01DFF824E14FEA1154A4EB135C16
:101A00001EEA430F18BF9EEA445F73D023EA0E0319
:101A1000DCF1200E21EA045143F4801332D322FA80
:101A20000CFE10EB0E0023FA0CFE41EB0E01CCF184
:101A3000200E03FA0EFE10EB0E0051F10001B1F57D
:101A4000801FCCF1200E32D201EB045112FA0EF2BB
:101A5000BDE8104058BF7047401C38BF5FEA4202E3
:101A600018BF7047002814BF20F0010041F10001A9
:101A70004FEA410313F5001F38BF7047A1F1C04181
:101A800000F006BB012A43EB0302ACF1200CDCF1B1
:101A90001F0E32BF4FF0000E23FA0CF310EB0300C1
:101AA00041EB0451B4EB115FD0D0A1EB045101F52F
:101AB000801149085FEA300001EB04510ED350F168
:101AC000000038BF12FA0EFE08D1BDE81040C9E789
:101AD000401C38BF5FEA4202CAD1C3E7BDE81040EC
:101AE0004FEA410313F5001F38BF7047A1F1C04111
:101AF00000F0CEBA9EEA445F08D011EA5E0FBDE85E
:101B0000104004BF01F0004100207047BDE81040C4
:101B100070B500F06FFA00BF64FBBE3E0000E0FF4E
:101B200002494FF0000000F02CBD00BF0000F87F1C
:101B3000491058BFC1F140415B1058BFC3F1404349
:101B40008B42EFF3008070472DE9C04130B4DFF8DD
:101B5000A0C23CEA111418BF3CEA131400F0EC8058
:101B600081EA03051CEA111444EAD57418BF1CEA83
:101B7000131500F0C780A4EB05044FF0004545EABB
:101B8000C12145EAC32341EA505143EA525304F1CB
:101B90007F74994204F500344FEAC0204FEAC22214
:101BA00008BF904200F09C804FEA13650FF2401688
:101BB000765D4FEA134506FB05F7C7F1807706FB14
:101BC00007F74FEAD737A7FB03687642C8F5803896
:101BD000A7FB06CE38BFA8F1010807FB08E64FF0C7
:101BE000000EA6FB028CE6FB03CEDCF1000CCEF16E
:101BF000004E38BFAEF1010EA6FB0C584FF00007A7
:101C00004FF00005E6FB0E87A1FB08C6A0FB07CE40
:101C100016EB0E0645F10005E1FB076515F1E04EF8
:101C20007EBFA4F580345FEA46066D4116F1800759
:101C300045F100054FEA17274FEA066647EA0567B0
:101C4000A6F1DE46B6F1805F4FEA15251FD938466A
:101C500024F0010C05EBC471BCF1FE6F01EB0C111B
:101C600002D8F0BCBDE8008124425CBF01F5801EB3
:101C70009EEAC47F02D4F0BCBDE80081244238D47F
:101C8000F0BCA1F1C041BDE8004100F001BA4FEA4B
:101C9000D22242EA43524FEAD323A7FB02864FEAFD
:101CA000D02040EA415007FB03661EEA0E0F4FEAC0
:101CB000D12105FB026658BFA6EB0056B6EB0056D5
:101CC0004FEA520E4EEAC37E18EB0E0E56EB530E41
:101CD000BDD518EB02085E417F1C55F10005B6E743
:101CE0004FF480154FF000074FF000064FF000084A
:101CF000ADE7F0BC4FF0000001F1C04101F0004140
:101D0000BDE8008111EA0C1F0CEA131500D00CE0AD
:101D100013EA0C1F00F025804FF00000F0BC81EAB0
:101D2000030101F00041BDE80081F0BCBDE80041C5
:101D300081EA030100F0ACB9F0BCBDE8004170B528
:101D400000F058F9097EFC3E00F007B881EA030173
:101D50004FF0000001F00041704781EA030100F0FC
:101D600097B9F0BCBDE800414FF000002149704731
:101D7000FFFDFBF9F7F5F4F2F0EEEDEBE9E8E6E450
:101D8000E3E1E0DEDDDBDAD8D7D5D4D3D1D0CFCDD7
:101D9000CCCBCAC8C7C6C5C4C2C1C0BFBEBDBCBB10
:101DA000BAB9B8B7B6B5B4B3B2B1B0AFAEADACAB0B
:101DB000AAA9A8A8A7A6A5A4A3A3A2A1A09F9F9EE5
:101DC0009D9C9C9B9A999998979796959594939397
:101DD000929191908F8F8E8E8D8C8C8B8B8A89892E
:101DE00088888787868585848483838282818180B1
:101DF0000000FF070000F87F10F0004248BF40429B
:101E0000B0FA80F310FA03F10AD0C3F11D0303F511
:101E100080634FEA415002EB035202EBD12170473D
:101E20004FF000007047000051EA030C17D41CF576
:101E3000801F58BFBCF5801F00F10680994218BF73
:101E4000704708BF9042704707D711F5801F58BFF1
:101E500013F5801F19D499427047894270471CF5C9
:101E6000801F08D5BCF5801FF7D58B4218BF70477F
:101E700008BF824270474FF4001C1CEB410F38BF73
:101E80001CEB430F01D28B42704770B500F0B2F8E3
:101E9000922449004FF000514FF08053FFF748BEA5
:101EA000DFF848C170B51CEA111E1EBF1CEA1315ED
:101EB0009EEA0C0F95EA0C0F00F06F8081EA030494
:101EC00023EA4C134EEAD47E21EA4C1141F48011EE
:101ED00043F48013AE44A1FB024CA0FB0365AEF1BA
:101EE0007F7E361955EB0C05A1FB034C4CF100032A
:101EF000A0FB021C16EB0C06654153F100030942DE
:101F000018BF46F0010613F4007F0BD14FEA0331EE
:101F10004FEA0530340341EA155140EA16506FF09C
:101F200003020AE04FEAC3214FEAC520F40241EA66
:101F3000555140EA56506FF0020202EB2E4201EB7F
:101F4000025585EACE710AD05FEA440C18BF24F02E
:101F5000004450F1000041F1000120EAD47040F249
:101F6000FE7C624500D270BDA84214BF4FF0804491
:101F70004FF04044002E08BF0024BEF1806FA8BF80
:101F8000A1F1C041BDE8704080F282804FF00000B6
:101F900001F1C04101F0004170479EEA0C0F0CEACC
:101FA000131518BF95EA0C0F06D04FF0000081EA18
:101FB000030E0EF0004170BD00F01CF88900013ED8
:101FC00000F007B800F009B84FEA430C5FEA5C5C28
:101FD00008D081EA030100F05BB84FEA410C5FEAE8
:101FE0005C5CF6D14FF00000014970470000FF072C
:101FF0000000F87F0EF1020E2EF0030E5EF8046B67
:10200000364205D4012A43EB030515F5001F12D80B
:10201000012841EB010C1CF5001F0CD80ED14FEA32
:10202000D17C15F5001F0CEB4C0C0CF1020C08BF19
:102030004CEBD37C04E04FF0080C01E04FEAD37C7A
:102040000CEB4C0526FA05F606F00706B6F1040C73
:1020500006D20EEB860CBDE870404CF0010C6047D8
:10206000DFE80CF0090B02024FF000414FF00000D6
:10207000A1F5002170BD19461046012851EB01045D
:1020800018BFD4F5001484BF002001F0004170BDDA
:102090000808A0F500114FEA3101704753EA010C1E
:1020A00017D41CF5801F58BFBCF5801F00F10680B7
:1020B0008B4218BF704708BF8242704707D713F59D
:1020C000801F58BF11F5801F19D48B4270479B4267
:1020D00070471CF5801F08D5BCF5801FF7D59942C5
:1020E00018BF704708BF904270474FF4001C1CEBAC
:1020F000430F38BF1CEB410F01D2994270470FB418
:102100000CBC03BCFFF7C1BE91EA030F10B581F010
:1021100000413FF565AC83F0004300F0D5B8000006
:102120002DE9F04101F5801CBCF5001FC0F2A9802B
:102130004FEA115C21EA0C510CF1FD0C41F48011C5
:102140005FEA5C0C0CF5C07C01D34000494130A42F
:10215000890241EA905187028E0E0A0CA45D04FBAD
:1021600004F602FB06F6C6F14046A4FB0662F60D35
:1021700046EA422606FB06F4A4FB01235242C3F1C1
:10218000404338BF5B1EA6FB02420024E6FB03244B
:10219000D20B42EA4446A6FB0623A1FB02E2A3FBC4
:1021A00007E4E3FB61426442C2F1404E38BFAEF146
:1021B000010EA6FB04234FF00002E6FB0E32A2FB49
:1021C00003463400E2FB6264A1FB06E6A4FB07E8D9
:1021D000E4FB61687642C8F1405838BFA8F10108B5
:1021E000A2FB06E4A3FB08E5E2FB6854A1FB05E6BD
:1021F000A7FB04E8E1FB648618F1200556F1000610
:10220000A809A8F11B08B10908F03F08B8F10A0FA6
:1022100040EA86601CD901EB0C51BDE8F08100BF9B
:10222000FCF5EEE8E2DDD8D3CFCBC7C3C0BDB9B66D
:10223000B4B1AEACA9A7A5A3A19F9D9B9A98969572
:102240009392908F8D8C8B898887868584838281F9
:10225000A0FB006800FB01F208EB4208B8EB8728FE
:1022600007D5341858EB0104D5D5401C51F10001B5
:10227000D1E7341A78EB0104CDD4401E71F100018E
:10228000C9E75FEA4C0C5FEA9C5C0DD105D34FF0C7
:10229000000001F00041BDE8F081BDE8F04170B5FB
:1022A000FFF7A8FE6DDBFFBEBDE8F0414FF0000078
:1022B000004970470000F87F10B591EA030F48BF4E
:1022C00083F000433FF58CAB841A71EB030C07D20B
:1022D00012198CF0004C43EB0C03001B61EB0C015A
:1022E000DFF8A4E14FEA1154A4EB135C1EEA430F9C
:1022F00018BF9EEA445F00F0B08023EA6E035242AA
:1023000021EA0451C3EB6E0338BF5B1EDCF1200EE3
:1023100025D322FA0CFE10EB0E0043FA0CFE41EB23
:102320000E01CCF1200E03FA0EFE10EB0E0051F15F
:102330000001CCF1200E29D412FA0EF201EB045167
:10234000BDE8104058BF7047401C1CBFB2F1004FA1
:10235000704700280CBF491C20F00100704712EBA9
:10236000020E43EB030218BF4FF0010E4EEA420289
:10237000ACF1200CDCF11E0E54D943FA0CFE10EB2C
:102380000E0051F1FF31CCF11E0ED5D50EF1010E2C
:1023900012FA0EFE404141EB010101EB445C5FEAA1
:1023A0005C5C10D910EBDE7001EB045138BFBEF15C
:1023B000004FBDE8104018BF704700280CBF491CF3
:1023C00020F00100704730D24FEAD42C11F50011F3
:1023D00024F400641BD0B1FA81F20B3AA41AA41EB3
:1023E000D2F12003914030FA03F31943904001EBFE
:1023F000CC71002C01EB0451BDE81040A8BF704720
:1024000001F1C0414FF0000001F000417047B0FA07
:1024100080F310FA03F100D110BDE41A173C48050F
:10242000C90AE4E701EB045110BD491001EB045166
:10243000BDE810404FEA300002E04FF00001704765
:102440004A0008BF0042F8D0B2F5001F28BF70470D
:1024500001F000414FF0000070479EEA445F07D052
:1024600011EA5E0FBDE8104004BF00210020704754
:10247000BDE8104070B5FFF7BDFD00BF40DFF63E80
:1024800083F00041104670470000E0FF43004FEA30
:10249000D30C4FEA3C0C43401FBF40070CF1605186
:1024A00013F0FE4F70471CF0006F03D100200CF0BA
:1024B000004170470CF0004343EA507010B540EA09
:1024C000CC0000F00EF800BF000000924FEA0001BF
:1024D000FFF7DEBD4FF000414FF00000A1F50021F5
:1024E00070470EF1020E2EF0030E5EF8044B2442EC
:1024F00004D44FEA4102B2F17F4F11D84FEA4003B2
:10250000B3F17F4F0CD80ED14FEAD07CB2F17F4FA0
:102510000CEB4C0C0CF1020C08BF4CEBD17C04E032
:102520004FF0080C01E04FEAD17C0CEB4C0324FA8D
:1025300003F404F00704B4F1040C06D20EEB840C8F
:10254000BDE810404CF0010C6047DFE80CF00708D4
:1025500002024FF00040A0F5800010BD0846420086
:1025600018BFD2F1807288BF00F0004010BD4FF05C
:102570004070E1EE100A7047FF2141EAD050C005DB
:1025800070470CF00F03092B08BF082000F059809A
:102590000A2B0BD0082B18BF704708BF1CF0400F48
:1025A0000AD04FF000004FF0000170471CF0400FC0
:1025B00018BF4FF0004070471CF0100F08D020F0FB
:1025C000704300F07F4242EAD3014FEA4370704704
:1025D00000F0604021F07F4242EA000201F07F40BB
:1025E00040EA727070474FF0FF0C4CF4E06C1CEA4C
:1025F00011531CBF9CEA030C9445C2BFDA4201EBA5
:1026000002517047002B0DD0BCF1000F0FD0002AF3
:1026100001F00041A4BF41F0E04141F07F614FF083
:102620000000704701F000414FF00000704750EA91
:1026300001334FF09B0C18BF4CF0806C7FF470AAF4
:1026400070471CF4801F11D01CF4E02F03D06FEAF8
:10265000CC31490070474FF04050EFF3008222F038
:10266000704242EA000282F3008870474FF0000097
:102670007047000000000000000000000000F03F74
:10268000000000000000F83F000000000000000013
:102690000000004003B8E23F00000000000000001E
:1026A00006D0CF43EBFD4C3E033333333333E33FAC
:1026B000FFAB6FDBB66DDB3F4D268F515555D53FD8
:1026C00001411DA96074D13F65DBC9934A86CD3FA6
:1026D000EF4E454A287ECA3F3E5555555555C53F94
:1026E00093BDBE166CC166BF2CDE25AF6A56113F86
:1026F000F16BD2C541BDBBBED0A4BE726937663E88
:1027000000000000000000000D0A2A2A2A2A2A2AB6
:102710002A2A2A2A2A2A2A2A2A2A2A2A2A2A2A2A19
:102720000D0A2A205357454E203536332050524F3C
:102730004A4543542036202A0D0A2A2A2A2A2A2AC0
:102740002A2A2A2A2A2A2A2A2A2A2A2A2A2A2A2AE9
:102750000D0A000074270008000000200800000097
:10276000C40100087C270008080000208006000043
:0C277000E0010008000000000000000074
:040000050800018965
:00000001FF
